{
  "contracts/TodoList.sol": {
    "TodoList": {
      "abi": [
        {
          "anonymous": false,
          "inputs": [
            {
              "indexed": false,
              "internalType": "uint256",
              "name": "id",
              "type": "uint256"
            },
            {
              "indexed": false,
              "internalType": "bool",
              "name": "completed",
              "type": "bool"
            }
          ],
          "name": "TaskCompleted",
          "type": "event"
        },
        {
          "anonymous": false,
          "inputs": [
            {
              "indexed": false,
              "internalType": "uint256",
              "name": "id",
              "type": "uint256"
            },
            {
              "indexed": false,
              "internalType": "string",
              "name": "content",
              "type": "string"
            },
            {
              "indexed": false,
              "internalType": "bool",
              "name": "completed",
              "type": "bool"
            },
            {
              "indexed": false,
              "internalType": "enum TodoList.Status",
              "name": "status",
              "type": "uint8"
            }
          ],
          "name": "TaskCreated",
          "type": "event"
        },
        {
          "anonymous": false,
          "inputs": [
            {
              "indexed": false,
              "internalType": "uint256",
              "name": "id",
              "type": "uint256"
            },
            {
              "indexed": false,
              "internalType": "enum TodoList.Status",
              "name": "status",
              "type": "uint8"
            }
          ],
          "name": "TaskStatusUpdated",
          "type": "event"
        },
        {
          "inputs": [
            {
              "internalType": "string",
              "name": "_content",
              "type": "string"
            }
          ],
          "name": "createTask",
          "outputs": [],
          "stateMutability": "nonpayable",
          "type": "function"
        },
        {
          "inputs": [],
          "name": "taskCount",
          "outputs": [
            {
              "internalType": "uint256",
              "name": "",
              "type": "uint256"
            }
          ],
          "stateMutability": "view",
          "type": "function"
        },
        {
          "inputs": [
            {
              "internalType": "uint256",
              "name": "",
              "type": "uint256"
            }
          ],
          "name": "tasks",
          "outputs": [
            {
              "internalType": "uint256",
              "name": "id",
              "type": "uint256"
            },
            {
              "internalType": "string",
              "name": "content",
              "type": "string"
            },
            {
              "internalType": "bool",
              "name": "completed",
              "type": "bool"
            },
            {
              "internalType": "enum TodoList.Status",
              "name": "status",
              "type": "uint8"
            }
          ],
          "stateMutability": "view",
          "type": "function"
        },
        {
          "inputs": [
            {
              "internalType": "uint256",
              "name": "_id",
              "type": "uint256"
            }
          ],
          "name": "toggleTaskCompleted",
          "outputs": [],
          "stateMutability": "nonpayable",
          "type": "function"
        },
        {
          "inputs": [
            {
              "internalType": "uint256",
              "name": "_id",
              "type": "uint256"
            },
            {
              "internalType": "enum TodoList.Status",
              "name": "_status",
              "type": "uint8"
            }
          ],
          "name": "updateTaskStatus",
          "outputs": [],
          "stateMutability": "nonpayable",
          "type": "function"
        }
      ],
      "evm": {
        "bytecode": {
          "linkReferences": {},
          "object": "608060405260008055348015601357600080fd5b50610e3d806100236000396000f3fe608060405234801561001057600080fd5b50600436106100575760003560e01c8063111002aa1461005c5780636140dd60146100785780638d97767214610094578063ab9b6811146100c7578063b6cb58a5146100e3575b600080fd5b6100766004803603810190610071919061075c565b610101565b005b610092600480360381019061008d91906107db565b61021b565b005b6100ae60048036038101906100a991906107db565b6103c0565b6040516100be9493929190610928565b60405180910390f35b6100e160048036038101906100dc9190610999565b610492565b005b6100eb6105fc565b6040516100f891906109d9565b60405180910390f35b60008081548092919061011390610a23565b9190505550604051806080016040528060005481526020018281526020016000151581526020016000600281111561014e5761014d6108b1565b5b81525060016000805481526020019081526020016000206000820151816000015560208201518160010190816101849190610c77565b5060408201518160020160006101000a81548160ff02191690831515021790555060608201518160020160016101000a81548160ff021916908360028111156101d0576101cf6108b1565b5b02179055509050507f994d5784ebb797935c42cdc3ea077e2b4a4cc729b4cf6fc4de90e9a918adce99600054826000806040516102109493929190610928565b60405180910390a150565b60008111801561022d57506000548111155b61026c576040517f08c379a000000000000000000000000000000000000000000000000000000000815260040161026390610d95565b60405180910390fd5b60006001600083815260200190815260200160002090508060020160009054906101000a900460ff16158160020160006101000a81548160ff0219169083151502179055508060020160009054906101000a900460ff16156102fa5760028160020160016101000a81548160ff021916908360028111156102f0576102ef6108b1565b5b0217905550610328565b60008160020160016101000a81548160ff02191690836002811115610322576103216108b1565b5b02179055505b7fe21fa966ca5cd02748c0752352d18c48165e61cb55b4c29cccf924b5a95fcff1828260020160009054906101000a900460ff1660405161036a929190610db5565b60405180910390a17f9a4f521400d1b2f610a5c4845f80b4d79e3ec73d18e977ac9e0b0e6e741ec85f828260020160019054906101000a900460ff166040516103b4929190610dde565b60405180910390a15050565b60016020528060005260406000206000915090508060000154908060010180546103e990610a9a565b80601f016020809104026020016040519081016040528092919081815260200182805461041590610a9a565b80156104625780601f1061043757610100808354040283529160200191610462565b820191906000526020600020905b81548152906001019060200180831161044557829003601f168201915b5050505050908060020160009054906101000a900460ff16908060020160019054906101000a900460ff16905084565b6000821180156104a457506000548211155b6104e3576040517f08c379a00000000000000000000000000000000000000000000000000000000081526004016104da90610d95565b60405180910390fd5b6000600160008481526020019081526020016000209050818160020160016101000a81548160ff02191690836002811115610521576105206108b1565b5b0217905550600280811115610539576105386108b1565b5b82600281111561054c5761054b6108b1565b5b036105735760018160020160006101000a81548160ff0219169083151502179055506105be565b60006002811115610587576105866108b1565b5b82600281111561059a576105996108b1565b5b036105bd5760008160020160006101000a81548160ff0219169083151502179055505b5b7f9a4f521400d1b2f610a5c4845f80b4d79e3ec73d18e977ac9e0b0e6e741ec85f83836040516105ef929190610dde565b60405180910390a1505050565b60005481565b6000604051905090565b600080fd5b600080fd5b600080fd5b600080fd5b6000601f19601f8301169050919050565b7f4e487b7100000000000000000000000000000000000000000000000000000000600052604160045260246000fd5b61066982610620565b810181811067ffffffffffffffff8211171561068857610687610631565b5b80604052505050565b600061069b610602565b90506106a78282610660565b919050565b600067ffffffffffffffff8211156106c7576106c6610631565b5b6106d082610620565b9050602081019050919050565b82818337600083830152505050565b60006106ff6106fa846106ac565b610691565b90508281526020810184848401111561071b5761071a61061b565b5b6107268482856106dd565b509392505050565b600082601f83011261074357610742610616565b5b81356107538482602086016106ec565b91505092915050565b6000602082840312156107725761077161060c565b5b600082013567ffffffffffffffff8111156107905761078f610611565b5b61079c8482850161072e565b91505092915050565b6000819050919050565b6107b8816107a5565b81146107c357600080fd5b50565b6000813590506107d5816107af565b92915050565b6000602082840312156107f1576107f061060c565b5b60006107ff848285016107c6565b91505092915050565b610811816107a5565b82525050565b600081519050919050565b600082825260208201905092915050565b60005b83811015610851578082015181840152602081019050610836565b60008484015250505050565b600061086882610817565b6108728185610822565b9350610882818560208601610833565b61088b81610620565b840191505092915050565b60008115159050919050565b6108ab81610896565b82525050565b7f4e487b7100000000000000000000000000000000000000000000000000000000600052602160045260246000fd5b600381106108f1576108f06108b1565b5b50565b6000819050610902826108e0565b919050565b6000610912826108f4565b9050919050565b61092281610907565b82525050565b600060808201905061093d6000830187610808565b818103602083015261094f818661085d565b905061095e60408301856108a2565b61096b6060830184610919565b95945050505050565b6003811061098157600080fd5b50565b60008135905061099381610974565b92915050565b600080604083850312156109b0576109af61060c565b5b60006109be858286016107c6565b92505060206109cf85828601610984565b9150509250929050565b60006020820190506109ee6000830184610808565b92915050565b7f4e487b7100000000000000000000000000000000000000000000000000000000600052601160045260246000fd5b6000610a2e826107a5565b91507fffffffffffffffffffffffffffffffffffffffffffffffffffffffffffffffff8203610a6057610a5f6109f4565b5b600182019050919050565b7f4e487b7100000000000000000000000000000000000000000000000000000000600052602260045260246000fd5b60006002820490506001821680610ab257607f821691505b602082108103610ac557610ac4610a6b565b5b50919050565b60008190508160005260206000209050919050565b60006020601f8301049050919050565b600082821b905092915050565b600060088302610b2d7fffffffffffffffffffffffffffffffffffffffffffffffffffffffffffffffff82610af0565b610b378683610af0565b95508019841693508086168417925050509392505050565b6000819050919050565b6000610b74610b6f610b6a846107a5565b610b4f565b6107a5565b9050919050565b6000819050919050565b610b8e83610b59565b610ba2610b9a82610b7b565b848454610afd565b825550505050565b600090565b610bb7610baa565b610bc2818484610b85565b505050565b5b81811015610be657610bdb600082610baf565b600181019050610bc8565b5050565b601f821115610c2b57610bfc81610acb565b610c0584610ae0565b81016020851015610c14578190505b610c28610c2085610ae0565b830182610bc7565b50505b505050565b600082821c905092915050565b6000610c4e60001984600802610c30565b1980831691505092915050565b6000610c678383610c3d565b9150826002028217905092915050565b610c8082610817565b67ffffffffffffffff811115610c9957610c98610631565b5b610ca38254610a9a565b610cae828285610bea565b600060209050601f831160018114610ce15760008415610ccf578287015190505b610cd98582610c5b565b865550610d41565b601f198416610cef86610acb565b60005b82811015610d1757848901518255600182019150602085019450602081019050610cf2565b86831015610d345784890151610d30601f891682610c3d565b8355505b6001600288020188555050505b505050505050565b7f5461736b20646f6573206e6f7420657869737400000000000000000000000000600082015250565b6000610d7f601383610822565b9150610d8a82610d49565b602082019050919050565b60006020820190508181036000830152610dae81610d72565b9050919050565b6000604082019050610dca6000830185610808565b610dd760208301846108a2565b9392505050565b6000604082019050610df36000830185610808565b610e006020830184610919565b939250505056fea2646970667358221220ad56ee39ca1da38dbb2dc7de6fa5c4d4c799610cf3a5b239d210304e3743105a64736f6c634300081c0033",
          "opcodes": "PUSH1 0x80 PUSH1 0x40 MSTORE PUSH1 0x0 DUP1 SSTORE CALLVALUE DUP1 ISZERO PUSH1 0x13 JUMPI PUSH1 0x0 DUP1 REVERT JUMPDEST POP PUSH2 0xE3D DUP1 PUSH2 0x23 PUSH1 0x0 CODECOPY PUSH1 0x0 RETURN INVALID PUSH1 0x80 PUSH1 0x40 MSTORE CALLVALUE DUP1 ISZERO PUSH2 0x10 JUMPI PUSH1 0x0 DUP1 REVERT JUMPDEST POP PUSH1 0x4 CALLDATASIZE LT PUSH2 0x57 JUMPI PUSH1 0x0 CALLDATALOAD PUSH1 0xE0 SHR DUP1 PUSH4 0x111002AA EQ PUSH2 0x5C JUMPI DUP1 PUSH4 0x6140DD60 EQ PUSH2 0x78 JUMPI DUP1 PUSH4 0x8D977672 EQ PUSH2 0x94 JUMPI DUP1 PUSH4 0xAB9B6811 EQ PUSH2 0xC7 JUMPI DUP1 PUSH4 0xB6CB58A5 EQ PUSH2 0xE3 JUMPI JUMPDEST PUSH1 0x0 DUP1 REVERT JUMPDEST PUSH2 0x76 PUSH1 0x4 DUP1 CALLDATASIZE SUB DUP2 ADD SWAP1 PUSH2 0x71 SWAP2 SWAP1 PUSH2 0x75C JUMP JUMPDEST PUSH2 0x101 JUMP JUMPDEST STOP JUMPDEST PUSH2 0x92 PUSH1 0x4 DUP1 CALLDATASIZE SUB DUP2 ADD SWAP1 PUSH2 0x8D SWAP2 SWAP1 PUSH2 0x7DB JUMP JUMPDEST PUSH2 0x21B JUMP JUMPDEST STOP JUMPDEST PUSH2 0xAE PUSH1 0x4 DUP1 CALLDATASIZE SUB DUP2 ADD SWAP1 PUSH2 0xA9 SWAP2 SWAP1 PUSH2 0x7DB JUMP JUMPDEST PUSH2 0x3C0 JUMP JUMPDEST PUSH1 0x40 MLOAD PUSH2 0xBE SWAP5 SWAP4 SWAP3 SWAP2 SWAP1 PUSH2 0x928 JUMP JUMPDEST PUSH1 0x40 MLOAD DUP1 SWAP2 SUB SWAP1 RETURN JUMPDEST PUSH2 0xE1 PUSH1 0x4 DUP1 CALLDATASIZE SUB DUP2 ADD SWAP1 PUSH2 0xDC SWAP2 SWAP1 PUSH2 0x999 JUMP JUMPDEST PUSH2 0x492 JUMP JUMPDEST STOP JUMPDEST PUSH2 0xEB PUSH2 0x5FC JUMP JUMPDEST PUSH1 0x40 MLOAD PUSH2 0xF8 SWAP2 SWAP1 PUSH2 0x9D9 JUMP JUMPDEST PUSH1 0x40 MLOAD DUP1 SWAP2 SUB SWAP1 RETURN JUMPDEST PUSH1 0x0 DUP1 DUP2 SLOAD DUP1 SWAP3 SWAP2 SWAP1 PUSH2 0x113 SWAP1 PUSH2 0xA23 JUMP JUMPDEST SWAP2 SWAP1 POP SSTORE POP PUSH1 0x40 MLOAD DUP1 PUSH1 0x80 ADD PUSH1 0x40 MSTORE DUP1 PUSH1 0x0 SLOAD DUP2 MSTORE PUSH1 0x20 ADD DUP3 DUP2 MSTORE PUSH1 0x20 ADD PUSH1 0x0 ISZERO ISZERO DUP2 MSTORE PUSH1 0x20 ADD PUSH1 0x0 PUSH1 0x2 DUP2 GT ISZERO PUSH2 0x14E JUMPI PUSH2 0x14D PUSH2 0x8B1 JUMP JUMPDEST JUMPDEST DUP2 MSTORE POP PUSH1 0x1 PUSH1 0x0 DUP1 SLOAD DUP2 MSTORE PUSH1 0x20 ADD SWAP1 DUP2 MSTORE PUSH1 0x20 ADD PUSH1 0x0 KECCAK256 PUSH1 0x0 DUP3 ADD MLOAD DUP2 PUSH1 0x0 ADD SSTORE PUSH1 0x20 DUP3 ADD MLOAD DUP2 PUSH1 0x1 ADD SWAP1 DUP2 PUSH2 0x184 SWAP2 SWAP1 PUSH2 0xC77 JUMP JUMPDEST POP PUSH1 0x40 DUP3 ADD MLOAD DUP2 PUSH1 0x2 ADD PUSH1 0x0 PUSH2 0x100 EXP DUP2 SLOAD DUP2 PUSH1 0xFF MUL NOT AND SWAP1 DUP4 ISZERO ISZERO MUL OR SWAP1 SSTORE POP PUSH1 0x60 DUP3 ADD MLOAD DUP2 PUSH1 0x2 ADD PUSH1 0x1 PUSH2 0x100 EXP DUP2 SLOAD DUP2 PUSH1 0xFF MUL NOT AND SWAP1 DUP4 PUSH1 0x2 DUP2 GT ISZERO PUSH2 0x1D0 JUMPI PUSH2 0x1CF PUSH2 0x8B1 JUMP JUMPDEST JUMPDEST MUL OR SWAP1 SSTORE POP SWAP1 POP POP PUSH32 0x994D5784EBB797935C42CDC3EA077E2B4A4CC729B4CF6FC4DE90E9A918ADCE99 PUSH1 0x0 SLOAD DUP3 PUSH1 0x0 DUP1 PUSH1 0x40 MLOAD PUSH2 0x210 SWAP5 SWAP4 SWAP3 SWAP2 SWAP1 PUSH2 0x928 JUMP JUMPDEST PUSH1 0x40 MLOAD DUP1 SWAP2 SUB SWAP1 LOG1 POP JUMP JUMPDEST PUSH1 0x0 DUP2 GT DUP1 ISZERO PUSH2 0x22D JUMPI POP PUSH1 0x0 SLOAD DUP2 GT ISZERO JUMPDEST PUSH2 0x26C JUMPI PUSH1 0x40 MLOAD PUSH32 0x8C379A000000000000000000000000000000000000000000000000000000000 DUP2 MSTORE PUSH1 0x4 ADD PUSH2 0x263 SWAP1 PUSH2 0xD95 JUMP JUMPDEST PUSH1 0x40 MLOAD DUP1 SWAP2 SUB SWAP1 REVERT JUMPDEST PUSH1 0x0 PUSH1 0x1 PUSH1 0x0 DUP4 DUP2 MSTORE PUSH1 0x20 ADD SWAP1 DUP2 MSTORE PUSH1 0x20 ADD PUSH1 0x0 KECCAK256 SWAP1 POP DUP1 PUSH1 0x2 ADD PUSH1 0x0 SWAP1 SLOAD SWAP1 PUSH2 0x100 EXP SWAP1 DIV PUSH1 0xFF AND ISZERO DUP2 PUSH1 0x2 ADD PUSH1 0x0 PUSH2 0x100 EXP DUP2 SLOAD DUP2 PUSH1 0xFF MUL NOT AND SWAP1 DUP4 ISZERO ISZERO MUL OR SWAP1 SSTORE POP DUP1 PUSH1 0x2 ADD PUSH1 0x0 SWAP1 SLOAD SWAP1 PUSH2 0x100 EXP SWAP1 DIV PUSH1 0xFF AND ISZERO PUSH2 0x2FA JUMPI PUSH1 0x2 DUP2 PUSH1 0x2 ADD PUSH1 0x1 PUSH2 0x100 EXP DUP2 SLOAD DUP2 PUSH1 0xFF MUL NOT AND SWAP1 DUP4 PUSH1 0x2 DUP2 GT ISZERO PUSH2 0x2F0 JUMPI PUSH2 0x2EF PUSH2 0x8B1 JUMP JUMPDEST JUMPDEST MUL OR SWAP1 SSTORE POP PUSH2 0x328 JUMP JUMPDEST PUSH1 0x0 DUP2 PUSH1 0x2 ADD PUSH1 0x1 PUSH2 0x100 EXP DUP2 SLOAD DUP2 PUSH1 0xFF MUL NOT AND SWAP1 DUP4 PUSH1 0x2 DUP2 GT ISZERO PUSH2 0x322 JUMPI PUSH2 0x321 PUSH2 0x8B1 JUMP JUMPDEST JUMPDEST MUL OR SWAP1 SSTORE POP JUMPDEST PUSH32 0xE21FA966CA5CD02748C0752352D18C48165E61CB55B4C29CCCF924B5A95FCFF1 DUP3 DUP3 PUSH1 0x2 ADD PUSH1 0x0 SWAP1 SLOAD SWAP1 PUSH2 0x100 EXP SWAP1 DIV PUSH1 0xFF AND PUSH1 0x40 MLOAD PUSH2 0x36A SWAP3 SWAP2 SWAP1 PUSH2 0xDB5 JUMP JUMPDEST PUSH1 0x40 MLOAD DUP1 SWAP2 SUB SWAP1 LOG1 PUSH32 0x9A4F521400D1B2F610A5C4845F80B4D79E3EC73D18E977AC9E0B0E6E741EC85F DUP3 DUP3 PUSH1 0x2 ADD PUSH1 0x1 SWAP1 SLOAD SWAP1 PUSH2 0x100 EXP SWAP1 DIV PUSH1 0xFF AND PUSH1 0x40 MLOAD PUSH2 0x3B4 SWAP3 SWAP2 SWAP1 PUSH2 0xDDE JUMP JUMPDEST PUSH1 0x40 MLOAD DUP1 SWAP2 SUB SWAP1 LOG1 POP POP JUMP JUMPDEST PUSH1 0x1 PUSH1 0x20 MSTORE DUP1 PUSH1 0x0 MSTORE PUSH1 0x40 PUSH1 0x0 KECCAK256 PUSH1 0x0 SWAP2 POP SWAP1 POP DUP1 PUSH1 0x0 ADD SLOAD SWAP1 DUP1 PUSH1 0x1 ADD DUP1 SLOAD PUSH2 0x3E9 SWAP1 PUSH2 0xA9A JUMP JUMPDEST DUP1 PUSH1 0x1F ADD PUSH1 0x20 DUP1 SWAP2 DIV MUL PUSH1 0x20 ADD PUSH1 0x40 MLOAD SWAP1 DUP2 ADD PUSH1 0x40 MSTORE DUP1 SWAP3 SWAP2 SWAP1 DUP2 DUP2 MSTORE PUSH1 0x20 ADD DUP3 DUP1 SLOAD PUSH2 0x415 SWAP1 PUSH2 0xA9A JUMP JUMPDEST DUP1 ISZERO PUSH2 0x462 JUMPI DUP1 PUSH1 0x1F LT PUSH2 0x437 JUMPI PUSH2 0x100 DUP1 DUP4 SLOAD DIV MUL DUP4 MSTORE SWAP2 PUSH1 0x20 ADD SWAP2 PUSH2 0x462 JUMP JUMPDEST DUP3 ADD SWAP2 SWAP1 PUSH1 0x0 MSTORE PUSH1 0x20 PUSH1 0x0 KECCAK256 SWAP1 JUMPDEST DUP2 SLOAD DUP2 MSTORE SWAP1 PUSH1 0x1 ADD SWAP1 PUSH1 0x20 ADD DUP1 DUP4 GT PUSH2 0x445 JUMPI DUP3 SWAP1 SUB PUSH1 0x1F AND DUP3 ADD SWAP2 JUMPDEST POP POP POP POP POP SWAP1 DUP1 PUSH1 0x2 ADD PUSH1 0x0 SWAP1 SLOAD SWAP1 PUSH2 0x100 EXP SWAP1 DIV PUSH1 0xFF AND SWAP1 DUP1 PUSH1 0x2 ADD PUSH1 0x1 SWAP1 SLOAD SWAP1 PUSH2 0x100 EXP SWAP1 DIV PUSH1 0xFF AND SWAP1 POP DUP5 JUMP JUMPDEST PUSH1 0x0 DUP3 GT DUP1 ISZERO PUSH2 0x4A4 JUMPI POP PUSH1 0x0 SLOAD DUP3 GT ISZERO JUMPDEST PUSH2 0x4E3 JUMPI PUSH1 0x40 MLOAD PUSH32 0x8C379A000000000000000000000000000000000000000000000000000000000 DUP2 MSTORE PUSH1 0x4 ADD PUSH2 0x4DA SWAP1 PUSH2 0xD95 JUMP JUMPDEST PUSH1 0x40 MLOAD DUP1 SWAP2 SUB SWAP1 REVERT JUMPDEST PUSH1 0x0 PUSH1 0x1 PUSH1 0x0 DUP5 DUP2 MSTORE PUSH1 0x20 ADD SWAP1 DUP2 MSTORE PUSH1 0x20 ADD PUSH1 0x0 KECCAK256 SWAP1 POP DUP2 DUP2 PUSH1 0x2 ADD PUSH1 0x1 PUSH2 0x100 EXP DUP2 SLOAD DUP2 PUSH1 0xFF MUL NOT AND SWAP1 DUP4 PUSH1 0x2 DUP2 GT ISZERO PUSH2 0x521 JUMPI PUSH2 0x520 PUSH2 0x8B1 JUMP JUMPDEST JUMPDEST MUL OR SWAP1 SSTORE POP PUSH1 0x2 DUP1 DUP2 GT ISZERO PUSH2 0x539 JUMPI PUSH2 0x538 PUSH2 0x8B1 JUMP JUMPDEST JUMPDEST DUP3 PUSH1 0x2 DUP2 GT ISZERO PUSH2 0x54C JUMPI PUSH2 0x54B PUSH2 0x8B1 JUMP JUMPDEST JUMPDEST SUB PUSH2 0x573 JUMPI PUSH1 0x1 DUP2 PUSH1 0x2 ADD PUSH1 0x0 PUSH2 0x100 EXP DUP2 SLOAD DUP2 PUSH1 0xFF MUL NOT AND SWAP1 DUP4 ISZERO ISZERO MUL OR SWAP1 SSTORE POP PUSH2 0x5BE JUMP JUMPDEST PUSH1 0x0 PUSH1 0x2 DUP2 GT ISZERO PUSH2 0x587 JUMPI PUSH2 0x586 PUSH2 0x8B1 JUMP JUMPDEST JUMPDEST DUP3 PUSH1 0x2 DUP2 GT ISZERO PUSH2 0x59A JUMPI PUSH2 0x599 PUSH2 0x8B1 JUMP JUMPDEST JUMPDEST SUB PUSH2 0x5BD JUMPI PUSH1 0x0 DUP2 PUSH1 0x2 ADD PUSH1 0x0 PUSH2 0x100 EXP DUP2 SLOAD DUP2 PUSH1 0xFF MUL NOT AND SWAP1 DUP4 ISZERO ISZERO MUL OR SWAP1 SSTORE POP JUMPDEST JUMPDEST PUSH32 0x9A4F521400D1B2F610A5C4845F80B4D79E3EC73D18E977AC9E0B0E6E741EC85F DUP4 DUP4 PUSH1 0x40 MLOAD PUSH2 0x5EF SWAP3 SWAP2 SWAP1 PUSH2 0xDDE JUMP JUMPDEST PUSH1 0x40 MLOAD DUP1 SWAP2 SUB SWAP1 LOG1 POP POP POP JUMP JUMPDEST PUSH1 0x0 SLOAD DUP2 JUMP JUMPDEST PUSH1 0x0 PUSH1 0x40 MLOAD SWAP1 POP SWAP1 JUMP JUMPDEST PUSH1 0x0 DUP1 REVERT JUMPDEST PUSH1 0x0 DUP1 REVERT JUMPDEST PUSH1 0x0 DUP1 REVERT JUMPDEST PUSH1 0x0 DUP1 REVERT JUMPDEST PUSH1 0x0 PUSH1 0x1F NOT PUSH1 0x1F DUP4 ADD AND SWAP1 POP SWAP2 SWAP1 POP JUMP JUMPDEST PUSH32 0x4E487B7100000000000000000000000000000000000000000000000000000000 PUSH1 0x0 MSTORE PUSH1 0x41 PUSH1 0x4 MSTORE PUSH1 0x24 PUSH1 0x0 REVERT JUMPDEST PUSH2 0x669 DUP3 PUSH2 0x620 JUMP JUMPDEST DUP2 ADD DUP2 DUP2 LT PUSH8 0xFFFFFFFFFFFFFFFF DUP3 GT OR ISZERO PUSH2 0x688 JUMPI PUSH2 0x687 PUSH2 0x631 JUMP JUMPDEST JUMPDEST DUP1 PUSH1 0x40 MSTORE POP POP POP JUMP JUMPDEST PUSH1 0x0 PUSH2 0x69B PUSH2 0x602 JUMP JUMPDEST SWAP1 POP PUSH2 0x6A7 DUP3 DUP3 PUSH2 0x660 JUMP JUMPDEST SWAP2 SWAP1 POP JUMP JUMPDEST PUSH1 0x0 PUSH8 0xFFFFFFFFFFFFFFFF DUP3 GT ISZERO PUSH2 0x6C7 JUMPI PUSH2 0x6C6 PUSH2 0x631 JUMP JUMPDEST JUMPDEST PUSH2 0x6D0 DUP3 PUSH2 0x620 JUMP JUMPDEST SWAP1 POP PUSH1 0x20 DUP2 ADD SWAP1 POP SWAP2 SWAP1 POP JUMP JUMPDEST DUP3 DUP2 DUP4 CALLDATACOPY PUSH1 0x0 DUP4 DUP4 ADD MSTORE POP POP POP JUMP JUMPDEST PUSH1 0x0 PUSH2 0x6FF PUSH2 0x6FA DUP5 PUSH2 0x6AC JUMP JUMPDEST PUSH2 0x691 JUMP JUMPDEST SWAP1 POP DUP3 DUP2 MSTORE PUSH1 0x20 DUP2 ADD DUP5 DUP5 DUP5 ADD GT ISZERO PUSH2 0x71B JUMPI PUSH2 0x71A PUSH2 0x61B JUMP JUMPDEST JUMPDEST PUSH2 0x726 DUP5 DUP3 DUP6 PUSH2 0x6DD JUMP JUMPDEST POP SWAP4 SWAP3 POP POP POP JUMP JUMPDEST PUSH1 0x0 DUP3 PUSH1 0x1F DUP4 ADD SLT PUSH2 0x743 JUMPI PUSH2 0x742 PUSH2 0x616 JUMP JUMPDEST JUMPDEST DUP2 CALLDATALOAD PUSH2 0x753 DUP5 DUP3 PUSH1 0x20 DUP7 ADD PUSH2 0x6EC JUMP JUMPDEST SWAP2 POP POP SWAP3 SWAP2 POP POP JUMP JUMPDEST PUSH1 0x0 PUSH1 0x20 DUP3 DUP5 SUB SLT ISZERO PUSH2 0x772 JUMPI PUSH2 0x771 PUSH2 0x60C JUMP JUMPDEST JUMPDEST PUSH1 0x0 DUP3 ADD CALLDATALOAD PUSH8 0xFFFFFFFFFFFFFFFF DUP2 GT ISZERO PUSH2 0x790 JUMPI PUSH2 0x78F PUSH2 0x611 JUMP JUMPDEST JUMPDEST PUSH2 0x79C DUP5 DUP3 DUP6 ADD PUSH2 0x72E JUMP JUMPDEST SWAP2 POP POP SWAP3 SWAP2 POP POP JUMP JUMPDEST PUSH1 0x0 DUP2 SWAP1 POP SWAP2 SWAP1 POP JUMP JUMPDEST PUSH2 0x7B8 DUP2 PUSH2 0x7A5 JUMP JUMPDEST DUP2 EQ PUSH2 0x7C3 JUMPI PUSH1 0x0 DUP1 REVERT JUMPDEST POP JUMP JUMPDEST PUSH1 0x0 DUP2 CALLDATALOAD SWAP1 POP PUSH2 0x7D5 DUP2 PUSH2 0x7AF JUMP JUMPDEST SWAP3 SWAP2 POP POP JUMP JUMPDEST PUSH1 0x0 PUSH1 0x20 DUP3 DUP5 SUB SLT ISZERO PUSH2 0x7F1 JUMPI PUSH2 0x7F0 PUSH2 0x60C JUMP JUMPDEST JUMPDEST PUSH1 0x0 PUSH2 0x7FF DUP5 DUP3 DUP6 ADD PUSH2 0x7C6 JUMP JUMPDEST SWAP2 POP POP SWAP3 SWAP2 POP POP JUMP JUMPDEST PUSH2 0x811 DUP2 PUSH2 0x7A5 JUMP JUMPDEST DUP3 MSTORE POP POP JUMP JUMPDEST PUSH1 0x0 DUP2 MLOAD SWAP1 POP SWAP2 SWAP1 POP JUMP JUMPDEST PUSH1 0x0 DUP3 DUP3 MSTORE PUSH1 0x20 DUP3 ADD SWAP1 POP SWAP3 SWAP2 POP POP JUMP JUMPDEST PUSH1 0x0 JUMPDEST DUP4 DUP2 LT ISZERO PUSH2 0x851 JUMPI DUP1 DUP3 ADD MLOAD DUP2 DUP5 ADD MSTORE PUSH1 0x20 DUP2 ADD SWAP1 POP PUSH2 0x836 JUMP JUMPDEST PUSH1 0x0 DUP5 DUP5 ADD MSTORE POP POP POP POP JUMP JUMPDEST PUSH1 0x0 PUSH2 0x868 DUP3 PUSH2 0x817 JUMP JUMPDEST PUSH2 0x872 DUP2 DUP6 PUSH2 0x822 JUMP JUMPDEST SWAP4 POP PUSH2 0x882 DUP2 DUP6 PUSH1 0x20 DUP7 ADD PUSH2 0x833 JUMP JUMPDEST PUSH2 0x88B DUP2 PUSH2 0x620 JUMP JUMPDEST DUP5 ADD SWAP2 POP POP SWAP3 SWAP2 POP POP JUMP JUMPDEST PUSH1 0x0 DUP2 ISZERO ISZERO SWAP1 POP SWAP2 SWAP1 POP JUMP JUMPDEST PUSH2 0x8AB DUP2 PUSH2 0x896 JUMP JUMPDEST DUP3 MSTORE POP POP JUMP JUMPDEST PUSH32 0x4E487B7100000000000000000000000000000000000000000000000000000000 PUSH1 0x0 MSTORE PUSH1 0x21 PUSH1 0x4 MSTORE PUSH1 0x24 PUSH1 0x0 REVERT JUMPDEST PUSH1 0x3 DUP2 LT PUSH2 0x8F1 JUMPI PUSH2 0x8F0 PUSH2 0x8B1 JUMP JUMPDEST JUMPDEST POP JUMP JUMPDEST PUSH1 0x0 DUP2 SWAP1 POP PUSH2 0x902 DUP3 PUSH2 0x8E0 JUMP JUMPDEST SWAP2 SWAP1 POP JUMP JUMPDEST PUSH1 0x0 PUSH2 0x912 DUP3 PUSH2 0x8F4 JUMP JUMPDEST SWAP1 POP SWAP2 SWAP1 POP JUMP JUMPDEST PUSH2 0x922 DUP2 PUSH2 0x907 JUMP JUMPDEST DUP3 MSTORE POP POP JUMP JUMPDEST PUSH1 0x0 PUSH1 0x80 DUP3 ADD SWAP1 POP PUSH2 0x93D PUSH1 0x0 DUP4 ADD DUP8 PUSH2 0x808 JUMP JUMPDEST DUP2 DUP2 SUB PUSH1 0x20 DUP4 ADD MSTORE PUSH2 0x94F DUP2 DUP7 PUSH2 0x85D JUMP JUMPDEST SWAP1 POP PUSH2 0x95E PUSH1 0x40 DUP4 ADD DUP6 PUSH2 0x8A2 JUMP JUMPDEST PUSH2 0x96B PUSH1 0x60 DUP4 ADD DUP5 PUSH2 0x919 JUMP JUMPDEST SWAP6 SWAP5 POP POP POP POP POP JUMP JUMPDEST PUSH1 0x3 DUP2 LT PUSH2 0x981 JUMPI PUSH1 0x0 DUP1 REVERT JUMPDEST POP JUMP JUMPDEST PUSH1 0x0 DUP2 CALLDATALOAD SWAP1 POP PUSH2 0x993 DUP2 PUSH2 0x974 JUMP JUMPDEST SWAP3 SWAP2 POP POP JUMP JUMPDEST PUSH1 0x0 DUP1 PUSH1 0x40 DUP4 DUP6 SUB SLT ISZERO PUSH2 0x9B0 JUMPI PUSH2 0x9AF PUSH2 0x60C JUMP JUMPDEST JUMPDEST PUSH1 0x0 PUSH2 0x9BE DUP6 DUP3 DUP7 ADD PUSH2 0x7C6 JUMP JUMPDEST SWAP3 POP POP PUSH1 0x20 PUSH2 0x9CF DUP6 DUP3 DUP7 ADD PUSH2 0x984 JUMP JUMPDEST SWAP2 POP POP SWAP3 POP SWAP3 SWAP1 POP JUMP JUMPDEST PUSH1 0x0 PUSH1 0x20 DUP3 ADD SWAP1 POP PUSH2 0x9EE PUSH1 0x0 DUP4 ADD DUP5 PUSH2 0x808 JUMP JUMPDEST SWAP3 SWAP2 POP POP JUMP JUMPDEST PUSH32 0x4E487B7100000000000000000000000000000000000000000000000000000000 PUSH1 0x0 MSTORE PUSH1 0x11 PUSH1 0x4 MSTORE PUSH1 0x24 PUSH1 0x0 REVERT JUMPDEST PUSH1 0x0 PUSH2 0xA2E DUP3 PUSH2 0x7A5 JUMP JUMPDEST SWAP2 POP PUSH32 0xFFFFFFFFFFFFFFFFFFFFFFFFFFFFFFFFFFFFFFFFFFFFFFFFFFFFFFFFFFFFFFFF DUP3 SUB PUSH2 0xA60 JUMPI PUSH2 0xA5F PUSH2 0x9F4 JUMP JUMPDEST JUMPDEST PUSH1 0x1 DUP3 ADD SWAP1 POP SWAP2 SWAP1 POP JUMP JUMPDEST PUSH32 0x4E487B7100000000000000000000000000000000000000000000000000000000 PUSH1 0x0 MSTORE PUSH1 0x22 PUSH1 0x4 MSTORE PUSH1 0x24 PUSH1 0x0 REVERT JUMPDEST PUSH1 0x0 PUSH1 0x2 DUP3 DIV SWAP1 POP PUSH1 0x1 DUP3 AND DUP1 PUSH2 0xAB2 JUMPI PUSH1 0x7F DUP3 AND SWAP2 POP JUMPDEST PUSH1 0x20 DUP3 LT DUP2 SUB PUSH2 0xAC5 JUMPI PUSH2 0xAC4 PUSH2 0xA6B JUMP JUMPDEST JUMPDEST POP SWAP2 SWAP1 POP JUMP JUMPDEST PUSH1 0x0 DUP2 SWAP1 POP DUP2 PUSH1 0x0 MSTORE PUSH1 0x20 PUSH1 0x0 KECCAK256 SWAP1 POP SWAP2 SWAP1 POP JUMP JUMPDEST PUSH1 0x0 PUSH1 0x20 PUSH1 0x1F DUP4 ADD DIV SWAP1 POP SWAP2 SWAP1 POP JUMP JUMPDEST PUSH1 0x0 DUP3 DUP3 SHL SWAP1 POP SWAP3 SWAP2 POP POP JUMP JUMPDEST PUSH1 0x0 PUSH1 0x8 DUP4 MUL PUSH2 0xB2D PUSH32 0xFFFFFFFFFFFFFFFFFFFFFFFFFFFFFFFFFFFFFFFFFFFFFFFFFFFFFFFFFFFFFFFF DUP3 PUSH2 0xAF0 JUMP JUMPDEST PUSH2 0xB37 DUP7 DUP4 PUSH2 0xAF0 JUMP JUMPDEST SWAP6 POP DUP1 NOT DUP5 AND SWAP4 POP DUP1 DUP7 AND DUP5 OR SWAP3 POP POP POP SWAP4 SWAP3 POP POP POP JUMP JUMPDEST PUSH1 0x0 DUP2 SWAP1 POP SWAP2 SWAP1 POP JUMP JUMPDEST PUSH1 0x0 PUSH2 0xB74 PUSH2 0xB6F PUSH2 0xB6A DUP5 PUSH2 0x7A5 JUMP JUMPDEST PUSH2 0xB4F JUMP JUMPDEST PUSH2 0x7A5 JUMP JUMPDEST SWAP1 POP SWAP2 SWAP1 POP JUMP JUMPDEST PUSH1 0x0 DUP2 SWAP1 POP SWAP2 SWAP1 POP JUMP JUMPDEST PUSH2 0xB8E DUP4 PUSH2 0xB59 JUMP JUMPDEST PUSH2 0xBA2 PUSH2 0xB9A DUP3 PUSH2 0xB7B JUMP JUMPDEST DUP5 DUP5 SLOAD PUSH2 0xAFD JUMP JUMPDEST DUP3 SSTORE POP POP POP POP JUMP JUMPDEST PUSH1 0x0 SWAP1 JUMP JUMPDEST PUSH2 0xBB7 PUSH2 0xBAA JUMP JUMPDEST PUSH2 0xBC2 DUP2 DUP5 DUP5 PUSH2 0xB85 JUMP JUMPDEST POP POP POP JUMP JUMPDEST JUMPDEST DUP2 DUP2 LT ISZERO PUSH2 0xBE6 JUMPI PUSH2 0xBDB PUSH1 0x0 DUP3 PUSH2 0xBAF JUMP JUMPDEST PUSH1 0x1 DUP2 ADD SWAP1 POP PUSH2 0xBC8 JUMP JUMPDEST POP POP JUMP JUMPDEST PUSH1 0x1F DUP3 GT ISZERO PUSH2 0xC2B JUMPI PUSH2 0xBFC DUP2 PUSH2 0xACB JUMP JUMPDEST PUSH2 0xC05 DUP5 PUSH2 0xAE0 JUMP JUMPDEST DUP2 ADD PUSH1 0x20 DUP6 LT ISZERO PUSH2 0xC14 JUMPI DUP2 SWAP1 POP JUMPDEST PUSH2 0xC28 PUSH2 0xC20 DUP6 PUSH2 0xAE0 JUMP JUMPDEST DUP4 ADD DUP3 PUSH2 0xBC7 JUMP JUMPDEST POP POP JUMPDEST POP POP POP JUMP JUMPDEST PUSH1 0x0 DUP3 DUP3 SHR SWAP1 POP SWAP3 SWAP2 POP POP JUMP JUMPDEST PUSH1 0x0 PUSH2 0xC4E PUSH1 0x0 NOT DUP5 PUSH1 0x8 MUL PUSH2 0xC30 JUMP JUMPDEST NOT DUP1 DUP4 AND SWAP2 POP POP SWAP3 SWAP2 POP POP JUMP JUMPDEST PUSH1 0x0 PUSH2 0xC67 DUP4 DUP4 PUSH2 0xC3D JUMP JUMPDEST SWAP2 POP DUP3 PUSH1 0x2 MUL DUP3 OR SWAP1 POP SWAP3 SWAP2 POP POP JUMP JUMPDEST PUSH2 0xC80 DUP3 PUSH2 0x817 JUMP JUMPDEST PUSH8 0xFFFFFFFFFFFFFFFF DUP2 GT ISZERO PUSH2 0xC99 JUMPI PUSH2 0xC98 PUSH2 0x631 JUMP JUMPDEST JUMPDEST PUSH2 0xCA3 DUP3 SLOAD PUSH2 0xA9A JUMP JUMPDEST PUSH2 0xCAE DUP3 DUP3 DUP6 PUSH2 0xBEA JUMP JUMPDEST PUSH1 0x0 PUSH1 0x20 SWAP1 POP PUSH1 0x1F DUP4 GT PUSH1 0x1 DUP2 EQ PUSH2 0xCE1 JUMPI PUSH1 0x0 DUP5 ISZERO PUSH2 0xCCF JUMPI DUP3 DUP8 ADD MLOAD SWAP1 POP JUMPDEST PUSH2 0xCD9 DUP6 DUP3 PUSH2 0xC5B JUMP JUMPDEST DUP7 SSTORE POP PUSH2 0xD41 JUMP JUMPDEST PUSH1 0x1F NOT DUP5 AND PUSH2 0xCEF DUP7 PUSH2 0xACB JUMP JUMPDEST PUSH1 0x0 JUMPDEST DUP3 DUP2 LT ISZERO PUSH2 0xD17 JUMPI DUP5 DUP10 ADD MLOAD DUP3 SSTORE PUSH1 0x1 DUP3 ADD SWAP2 POP PUSH1 0x20 DUP6 ADD SWAP5 POP PUSH1 0x20 DUP2 ADD SWAP1 POP PUSH2 0xCF2 JUMP JUMPDEST DUP7 DUP4 LT ISZERO PUSH2 0xD34 JUMPI DUP5 DUP10 ADD MLOAD PUSH2 0xD30 PUSH1 0x1F DUP10 AND DUP3 PUSH2 0xC3D JUMP JUMPDEST DUP4 SSTORE POP JUMPDEST PUSH1 0x1 PUSH1 0x2 DUP9 MUL ADD DUP9 SSTORE POP POP POP JUMPDEST POP POP POP POP POP POP JUMP JUMPDEST PUSH32 0x5461736B20646F6573206E6F7420657869737400000000000000000000000000 PUSH1 0x0 DUP3 ADD MSTORE POP JUMP JUMPDEST PUSH1 0x0 PUSH2 0xD7F PUSH1 0x13 DUP4 PUSH2 0x822 JUMP JUMPDEST SWAP2 POP PUSH2 0xD8A DUP3 PUSH2 0xD49 JUMP JUMPDEST PUSH1 0x20 DUP3 ADD SWAP1 POP SWAP2 SWAP1 POP JUMP JUMPDEST PUSH1 0x0 PUSH1 0x20 DUP3 ADD SWAP1 POP DUP2 DUP2 SUB PUSH1 0x0 DUP4 ADD MSTORE PUSH2 0xDAE DUP2 PUSH2 0xD72 JUMP JUMPDEST SWAP1 POP SWAP2 SWAP1 POP JUMP JUMPDEST PUSH1 0x0 PUSH1 0x40 DUP3 ADD SWAP1 POP PUSH2 0xDCA PUSH1 0x0 DUP4 ADD DUP6 PUSH2 0x808 JUMP JUMPDEST PUSH2 0xDD7 PUSH1 0x20 DUP4 ADD DUP5 PUSH2 0x8A2 JUMP JUMPDEST SWAP4 SWAP3 POP POP POP JUMP JUMPDEST PUSH1 0x0 PUSH1 0x40 DUP3 ADD SWAP1 POP PUSH2 0xDF3 PUSH1 0x0 DUP4 ADD DUP6 PUSH2 0x808 JUMP JUMPDEST PUSH2 0xE00 PUSH1 0x20 DUP4 ADD DUP5 PUSH2 0x919 JUMP JUMPDEST SWAP4 SWAP3 POP POP POP JUMP INVALID LOG2 PUSH5 0x6970667358 0x22 SLT KECCAK256 0xAD JUMP 0xEE CODECOPY 0xCA SAR LOG3 DUP14 0xBB 0x2D 0xC7 0xDE PUSH16 0xA5C4D4C799610CF3A5B239D210304E37 NUMBER LT GAS PUSH5 0x736F6C6343 STOP ADDMOD SHR STOP CALLER "
        },
        "methodIdentifiers": {
          "createTask(string)": "111002aa",
          "taskCount()": "b6cb58a5",
          "tasks(uint256)": "8d977672",
          "toggleTaskCompleted(uint256)": "6140dd60",
          "updateTaskStatus(uint256,uint8)": "ab9b6811"
        }
      }
    }
  }
}